:040000000200313297
:01000B0032C2
:0100130032BA
:01001B0032B2
:0100230032AA
:03002B0002009D33
:13008A00E4F508F509750A01750B32750C64F50D02002E3B
:03002E0002047C4D
:20009D00C0E0C0D0050DE50D24805003750D00C2CFD0D0D0E032AE82AF83EE2EFEEF33FFE6
:2000BD0074FFC39EFE74FF9FFF7589018E8A8F8CD28C308DFDC28CC28D22AE82AF83ADA088
:2000DD008E088F09EE2EFEEF33FF7B007C00C3EB940BEC940050398E0274024AF5A0B2A115
:2000FD00EFC313CE13CEFF0BBB00010C900010C007C006C005C004C0031200B3B2A190007C
:20011D000E1200B3D003D004D005D006D00780BE43A0035305F8ED42A0227E007F00E5A0DF
:20013D0030E1FBE5A020E0F67C007D00C3EC940AED94005059B2A1900010C007C006C00566
:20015D00C0041200B3D004D005D006D007B2A1AAA05302017B008C000CBC00010D88F00556
:20017D00F0A802A9038006E828F8E933F9D5F0F7E84206E94207900010C007C006C005C0A9
:20019D00041200B3D004D005D006D007809EC2A0B2A1900010C007C0061200B3D006D007B1
:2001BD0043A0038E828F8322AC82AD83AEF0FFC2AFE50E604F780079008E027B00B8003501
:2001DD00B90032BAE02FBB002C9002E0C007C006C005C0041200D79001501200B3D004D0AC
:2001FD0005D006D0078C828D831200D79001501200B30202958C828D831200D790015012F0
:20021D0000B38074780079008E027B00B80040B9003DBAE03ABB00379002E0C007C006C0AB
:20023D0005C0041200D79001501200B39003F01200D79001501200B3D004D005D006D007E1
:20025D008C828D831200D79001501200B380299003F0C007C006C005C0041200D7900150C8
:20027D001200B3D004D005D006D0078C828D831200D79001501200B3D2AF22AE827F00C384
:20029D00EE94EDEF94005003020476C374FF9EE49F5003020476EE2413FE240A83F582EE21
:2002BD00241783F583E473EA0F7615763A522C366161616161676767404F020304030403F0
:2002DD00030404040404040404040404049003FA1200D7120137AE82AF839003FAC007C098
:2002FD00061200D7D006D007EE30E203D2A322C2A3229003EE0200D79003FA1200D7120141
:20031D0037AE82AF839003FAC007C0061200D7D006D007EE6001229003410200D79003FACC
:20033D001200D79002AB1200D79001501200B39002830200D79003FA1200D7120137AE820D
:20035D00AF839003FAC007C0061200D7D006D007741F5EFC7D00C3EC9418ED940040147490
:20037D001F5EFC7D00C3741F9CE49D4006750B320203F9741F5EFC7D00C3EC9410ED9400C3
:20039D004013741F5EFC7D00C374179CE49D4005750B198047741F5EFC7D00C3EC9408EDD1
:2003BD0094004013741F5EFC7D00C3740F9CE49D4005750B0C8025741F5EFC7D00C3EC9449
:2003DD0004ED94004013741F5EFC7D00C374079CE49D4005750B068003750B0374605EFC64
:2003FD007D00BC2007BD0004750C322274605EFC7D00BC4007BD0004750C4B225306607F55
:20041D0000BE6007BF0004750C6422750C19229003FA1200D7750A01229003FA1200D77511
:20043D000A00229003FA1200D78508828509830200D79003FA1200D79001501200B3900355
:20045D00AA0200D79003FA0200D79003FA1200D71201379003FA0200D79002FE0200D77592
:20047D00C80075CCEF75CDD875CAEF75CBD8E5CC25CCF5CCE5CD25CDF5CDE5CA25CAF5CAE1
:20049D00E5CB25CBF5CBD2AFD2ADD2CA7590FF75B0FF75803F75A00FE5A020E10990003272
:2004BD001200B302080BE5A030E112E5A020E00DC2AF120137120298D2AF02080BE50A70AF
:2004DD000302080B75B000759001E4F563F564FCFDFAFBF567F568F569F56AF56BF56CEC16
:2004FD00240FF56D856D6E856D6F856D70EA2418F571EB3408F572E567240FF573856D74C0
:20051D00E5692418F575E56A3408F576856D77856D78856D79856D7AE56B2418F57BE56CDD
:20053D003408F57C856D7DE4F565F566E5A020E1030204B5C002C0038565F005F07E017F53
:20055D00008006EE2EFEEF33FFD5F0F7AA807B00EA5206EB5207D003D002EE4F7003020778
:20057D0001E565256DF9E77057C002C003E5652565FEE56633FFEE2EFEEF33FFEE257BF548
:20059D0082EF357CF583E493FAA3E493FBA3E493FEA3E493FF750E018A828B838EF0EFC022
:2005BD0005C004C003C0021201C5D002D003D004D005E565257DF8A60DD003D00202076005
:2005DD00E5652570F98707BF80004003020671E565256EF98707C3EF950D502FC002C003E1
:2005FD00AE0D7F00E565256FF987037A00EEC39BFEEF9AFFAA0C7B00C3EE9AEF64808BF02D
:20061D0063F08095F0D003D0025049E565257AF98707C3E50D9F4003020760C002C003E54D
:20063D00652579F987077E00747FC39FFFE49EFEAA0D7B00EA2FFFEB3EFEAA0C7B00C3EF6D
:20065D009AEE64808BF063F08095F0D003D0025003020760E5652578F9870774804FF785B0
:20067D000BF0E50D84E5F06003020760C002C003E5652577F9870753077F7E00AA0D7B00D0
:20069D00EFB5020BEEB50307D003D002020760E5652574F97480450DF7E5652565FEE5669B
:2006BD0033FFEE2EFEEF33FFEE2575F582EF3576F583E493FAA3E493FBA3E493FEA3E493E7
:2006DD00FF750E018A828B838EF0EFC005C004C003C0021201C5D002D003D004D005D003EC
:2006FD00D002805FE5652573F9E76057C002C003E5652565FEE56633FFEE2EFEEF33FFEEB6
:20071D002571F582EF3572F583E493FAA3E493FBA3E493FEA3E493FF750E008A828B838EBF
:20073D00F0EFC005C004C003C0021201C5D002D003D004D005E567240FFF2565F87600D043
:20075D0003D0020565E4B565020566C3E5659406E566648094805003020549C3E56394079F
:20077D00E564648094805009E590FF25E0F5908020C37407956374808564F063F08095F0C9
:20079D005009E5B0FF25E0F5B0800675900075B001900064C005C004C003C0021200B3D05D
:2007BD0002D003D004D00574062CFCE43DFD74182AFAE43BFB74062567F567E43568F568D4
:2007DD0074182569F569E4356AF56A7418256BF56BE4356CF56C0563E4B563020564C3E5C9
:1707FD0063940EE5646480948050030204FC9000321200B30204B508
:200818001403000012030000580200000D0200000E020000760200001F02E0001A02000086
:200838001C02000015020000160200000000000011030000220300001B0300001D030000DC
:200858001E03000005030000000000002103000023020000240300002602000006030000B6
:20087800000000002A0200002B0300002D0300002502000004020000000000003202000075
:20089800340200002C0200002E0300000C03000029020000310200003303000035030000D0
:2008B8003603000000000000000000003A0300003B0200003C0300003D02000003030000E9
:2008D800000000004103000042030000430200003E0200000B0200001103E00049020000A6
:2008F8004B0300004403000046020000830200002703E0004A0200004C0200004D0300008A
:20091800450200000A0300002F02E0000000000052020000540200004E030000010200005C
:200938000000000000000000780300005B02000055030000090300001403E0005903000010
:100958005A0300005D020000660300000702000061
:201FBF00487566666D616E20436F6D707574657220536369656E63652E2050532F32204B37
:201FDF006579626F6172642046726F6D20536372617463682E20765F312E300000000000AE
:06006000E478FFF6D8FD74
:20003E007900E94400601B7A00900968780175A000E493F2A308B8000205A0D9F4DAF275F7
:02005E00A0FF01
:200066007800E84400600A790175A000E4F309D8FC7800E84400600C7900900001E4F0A398
:04008600D8FCD9FACF
:0D00310075817D120814E582600302002E27
:0408140075820022C7
:00000001FF
