:040000000200313297
:01000B0032C2
:0100130032BA
:01001B0032B2
:0100230032AA
:03002B0002009D33
:13008A00E4F508F509750A01750B32750C64F50D02002E3B
:03002E0002046069
:20009D00C0E0C0D0050DE50D24805003750D00C2CFD0D0D0E032AE82AF83EE2EFEEF33FFE6
:2000BD0074FFC39EFE74FF9FFF7589018E8A8F8CD28C308DFDC28CC28D22AE82AF83ADA088
:2000DD008E088F09EE2EFEEF33FF7B007C00C3EB940BEC940050398E0274024AF5A0B2A115
:2000FD00EFC313CE13CEFF0BBB00010C900010C007C006C005C004C0031200B3B2A190007C
:20011D000E1200B3D003D004D005D006D00780BE43A0035305F8ED42A0227E007F00E5A0DF
:20013D0030E1FBE5A020E0F67C007D00C3EC940AED94005059B2A1900010C007C006C00566
:20015D00C0041200B3D004D005D006D007B2A1AAA05302017B008C000CBC00010D88F00556
:20017D00F0A802A9038006E828F8E933F9D5F0F7E84206E94207900010C007C006C005C0A9
:20019D00041200B3D004D005D006D007809EC2A0B2A1900010C007C0061200B3D006D007B1
:2001BD0043A0038E828F8322AE82AF83C2AFE50E60467C007A007B007D00BA002CBB0029D4
:2001DD00BCE026BD00239002E0C007C0061200D79002A01200B3D006D0078E828F831200A0
:2001FD00D79002A01200B380738E828F831200D79002A01200B380647C007A007B007D004D
:20021D00BA0038BB0035BCE032BD002F9002E0C007C0061200D79002A01200B39003F012B1
:20023D0000D79002A01200B3D006D0078E828F831200D79002A01200B380219003F0C00739
:20025D00C0061200D79002A01200B3D006D0078E828F831200D79002A01200B3D2AF22AEDB
:20027D00827F00C3EE94EDEF9400500302045AC374FF9EE49F500302045AEE2413FE240A9D
:20029D0083F582EE241783F583E473CEF35AF95A1E36101A45454545454B4B4B243302024B
:2002BD0004020403030404040404040404040404049003FA1200D7120137AE82AF8390032C
:2002DD00FAC007C0061200D7D006D007EE30E203D2A322C2A3229003EE0200D79003FA12CA
:2002FD0000D7120137AE82AF839003FAC007C0061200D7D006D007EE600122900341020067
:20031D00D79003FA1200D79002AB1200D79002A01200B39002830200D79003FA1200D712E0
:20033D000137AE82AF839003FAC007C0061200D7D006D007741F5EFC7D00C3EC9418ED9410
:20035D00004014741F5EFC7D00C3741F9CE49D4006750B320203DD741F5EFC7D00C3EC94C8
:20037D0010ED94004013741F5EFC7D00C374179CE49D4005750B198047741F5EFC7D00C3D5
:20039D00EC9408ED94004013741F5EFC7D00C3740F9CE49D4005750B0C8025741F5EFC7D37
:2003BD0000C3EC9404ED94004013741F5EFC7D00C374079CE49D4005750B068003750B036F
:2003DD0074605EFC7D00BC2007BD0004750C322274605EFC7D00BC4007BD0004750C4B227F
:2003FD005306607F00BE6007BF0004750C6422750C19229003FA1200D7750A01229003FA58
:20041D001200D7750A00229003FA1200D78508828509830200D79003FA1200D79002A0120C
:20043D0000B39003AA0200D79003FA0200D79003FA1200D71201379003FA0200D79002FEBA
:20045D000200D775C80075CCEF75CDD875CAEF75CBD8E5CC25CCF5CCE5CD25CDF5CDE5CA61
:20047D0025CAF5CAE5CB25CBF5CBD2AFD2ADD2CA7590FF75B0FF75803F75A00FE5A020E1AF
:20049D00099000321200B30207C2E5A030E112E5A020E00DC2AF12013712027CD2AF0207D5
:2004BD00C2E50A70030207C275B000759001E4F563F5647C007D007A007B00F567F568F5D4
:2004DD0069F56AF56BF56CEC240FF56D856D6E856D6F856D70EA24CFF571EB3407F572E51D
:2004FD0067240FF573856D74E56924CFF575E56A3407F576856D77856D78856D79856D7A2D
:20051D00E56B24CFF57BE56C3407F57C856D7DE4F565F566E5A020E103020499C002C00359
:20053D008565F005F07E017F008006EE2EFEEF33FFD5F0F7AA807B00EA5206EB5207D00356
:20055D00D002EE4F70030206CBE565256DF9E77044E5652565FEE56633FFEE2EFEEF33FF2F
:20057D00EE257BF582EF357CF583E493FEA3E493FF750E018E828F83C005C004C003C002FF
:20059D001201C5D002D003D004D005E565257DF8A60D020717E5652570F98707BF8000407C
:2005BD0003020646E565256EF98707C3EF950D502FC002C003AE0D7F00E565256FF9870376
:2005DD007A00EEC39BFEEF9AFFAA0C7B00C3EE9AEF64808BF063F08095F0D003D002504952
:2005FD00E565257AF98707C3E50D9F4003020717C002C003E5652579F987077E00747FC38F
:20061D009FFFE49EFEAA0D7B00EA2FFFEB3EFEAA0C7B00C3EF9AEE64808BF063F08095F00C
:20063D00D003D0025003020717E5652578F9870774804FF7850BF0E50D84E5F060030207A6
:20065D0017C002C003E5652577F9870753077F7E00AA0D7B00EFB5020BEEB50307D003D0EA
:20067D0002020717D003D002E5652574F97480450DF7E5652565FEE56633FFEE2EFEEF33F2
:20069D00FFEE2575F582EF3576F583E493FEA3E493FF750E018E828F83C005C004C003C0ED
:2006BD00021201C5D002D003D004D005804CE5652573F9E76044E5652565FEE56633FFEE86
:2006DD002EFEEF33FFEE2571F582EF3572F583E493FEA3E493FF750E008E828F83C005C0EF
:2006FD0004C003C0021201C5D002D003D004D005E567240FFF2565F876000565E4B565024E
:20071D000566C3E5659406E566648094805003020531C3E5639407E564648094805009E5B7
:20073D0090FF25E0F5908020C37407956374808564F063F08095F05009E5B0FF25E0F5B0F1
:20075D00800675900075B001900064C005C004C003C0021200B3D002D003D004D00574063C
:20077D002CFCE43DFD74182AFAE43BFB74062567F567E43568F56874182569F569E4356A11
:20079D00F56A7418256BF56BE4356CF56C0563E4B563020564C3E563940EE56464809480BE
:0E07BD0050030204E49000321200B3020499CB
:2007CF001403000012030000580200000D0200000E020000760200001F02E0001A020000D0
:2007EF001C02000015020000160200000000000011030000220300001B0300001D03000026
:20080F001E03000005030000000000002103000023020000240300002602000006030000FF
:20082F00000000002A0200002B0300002D03000025020000040200000000000032020000BE
:20084F00340200002C0200002E0300000C0300002902000031020000330300003503000019
:20086F003603000000000000000000003A0300003B0200003C0300003D0200000303000032
:20088F00000000004103000042030000430200003E0200000B0200001103E00049020000EF
:2008AF004B0300004403000046020000830200002703E0004A0200004C0200004D030000D3
:2008CF00450200000A0300002F02E0000000000052020000540200004E03000001020000A6
:2008EF000000000000000000780300005B02000055030000090300001403E000590300005A
:10090F005A0300005D0200006603000007020000AA
:201FBF00487566666D616E20436F6D707574657220536369656E63652E2050532F32204B37
:201FDF006579626F6172642046726F6D20536372617463682E20765F312E300000000000AE
:06006000E478FFF6D8FD74
:20003E007900E94400601B7A0090091F780175A000E493F2A308B8000205A0D9F4DAF27540
:02005E00A0FF01
:200066007800E84400600A790175A000E4F309D8FC7800E84400600C7900900001E4F0A398
:04008600D8FCD9FACF
:0D00310075817D1207CBE582600302002E71
:0407CB007582002211
:00000001FF
